:020000040800F2
:1000000038040020D9170008C5010008C7010008FE
:10001000CB010008CF010008D30100080000000058
:10002000000000000000000000000000D7010008F0
:10003000D901000800000000DB010008DD01000814
:10004000F3170008F3170008F3170008F317000868
:10005000F3170008F3170008F3170008F317000858
:10006000F3170008F3170008F3170008F317000848
:10007000F3170008F3170008F3170008F317000838
:10008000F3170008F3170008F3170008F317000828
:10009000F3170008F3170008F3170008F317000818
:1000A000F3170008F3170008F3170008F317000808
:1000B000F3170008F3170008F3170008F3170008F8
:1000C000F3170008F3170008F3170008F3170008E8
:1000D000F3170008E5010008F3170008F3170008FC
:1000E000ED1F0008F3170008F3170008F3170008C6
:1000F000F3170008F3170008F3170008F3170008B8
:10010000F3170008F3170008F3170008F3170008A7
:10011000F3170008F3170008F3170008F317000897
:10012000F3170008F3170008F3170008F317000887
:10013000DFF80CD001F0F6FF004800476901000825
:100140003804002008B54FF4E06000F041FB2520A2
:100150008DF8000000208DF8020001208DF80300CA
:10016000684600F03AFB08BD00F050F9FFF7EAFFDF
:1001700000F0B8FA4FF4E13000F09CF901F086FE8F
:1001800018E00D4800686FEA00000C49C1F88801CA
:100190004FF010010A4800F008FD38B942F2107023
:1001A00000F06FF91021064800F0FFFC4CF25030CF
:1001B00000F067F9E5E700008801234200002342D0
:1001C00000180140704700BFFEE700BFFEE700BF18
:1001D000FEE700BFFEE770477047704710B500F0BC
:1001E00047F910BD10B540F22551104801F09AFAB8
:1001F00001280ED10D4801F02BFA044621460B4888
:1002000001F022FA00BF4021084801F08BFA0028D3
:10021000F9D040F22551054801F09AFA20B140F298
:100220002551024801F0BEFA10BD0000003801401F
:100230000CB50020019000906B48006840F48030BD
:100240006949086000BF6848006800F40030009009
:100250000198401C0190009818B90198B0F5A06F62
:10026000F1D16148006810F4003F02D001200090F5
:1002700001E0002000900098012842D15B4800680E
:1002800040F01000594908600846006820F003005B
:1002900008600846006840F0020008605248406864
:1002A000514948600846406848600846406840F444
:1002B000806048600846406820F47C10486008462A
:1002C000406840F4E81048600846006840F08070DC
:1002D000086000BF4448006810F0007FFAD0424830
:1002E000406820F00300404948600846406840F0FC
:1002F0000200486000BF3C48406800F00C0008283D
:10030000F9D10CBD10B5FFF793FF10BD10B53648FD
:10031000006840F0010034490860084640683449EC
:1003200008403149486008460068324908402E4973
:1003300008600846006820F480200860084640688D
:1003400020F4FE0048604FF41F008860FFF7DAFFDA
:100350004FF000602849086010BD10B50021002052
:100360000022214B5B6803F00C0121B1042906D067
:10037000082928D107E0214B214C236027E01F4B9F
:100380001F4C236023E0184B5B6803F47010164B7E
:100390005B6803F48032022303EB904022B9194BCF
:1003A0004343174C23600DE00F4B5B6813F4003F91
:1003B00004D0144B4343124C236003E00F4B4343E0
:1003C0000F4C236003E00D4B0D4C236000BF00BFBA
:1003D000054B5B68C3F303130B4CE15C084B1B68D4
:1003E000CB40074C236010BD0010024000200240AB
:1003F0000000FFF8FFFFF6FE08ED00E000127A00B3
:100400000000002000093D000400002030B54FF43A
:100410003471B1F1807F01D301201DE021F07F40D4
:10042000401E4FF0E022506150170F22002807DADB
:1004300013071D0E1C4B00F00F04241F1D5503E075
:1004400013071C0E194B1C5400BF00204FF0E02274
:10045000906107201061002008B100BFFEE74FF057
:10046000E020006920F001004FF0E021086130BD7C
:100470000F48006820B10E480068401E0C49086013
:10048000704701B50A49009808604FF0E020006904
:1004900040F001004FF0E021086100BF044800680F
:1004A0000028FBD108BD000018ED00E000E400E0EA
:1004B0001400002010B586B00446012144F2040067
:1004C00000F098FD4FF40070ADF8040018208DF88E
:1004D000070003208DF8060001A9774800F0D4FA40
:1004E0004FF48060ADF8040004208DF8070001A9E6
:1004F000714800F0C9FA02940020ADF80C00ADF884
:100500000E00ADF81000ADF814000C20ADF812008C
:1005100002A96A4800F09FFF0121684801F027F80E
:10052000012240F22551654801F02DF806B010BDBA
:1005300070B504460D46E1B2604801F085F800BF91
:100540005E48008810F0800FFAD0204670BDF0B5EC
:1005500003460D461646002729460A2E03D00020E2
:1005600008702846F0BD33B9302001F8010B002097
:1005700008702846F6E7002B03DA2D2001F8010B5E
:100580005B4242F210720DE093FBF2F404B937B112
:1005900004F1300001F8010B04FB123301270A209B
:1005A00092FBF0F2002AEFDC002008702846D9E721
:1005B0000FB470B586B006460CA8019073E00B9896
:1005C00000785C281CD10B98401C0B9000786E289A
:1005D00009D072280FD10D21304601F035F80B9863
:1005E000401C0B900BE00A21304601F02DF80B98CF
:1005F000401C0B9003E00B98401C0B9000BF4BE09D
:100600000B980078252840D10B98401C0B9000785F
:10061000642818D0732833D1019810C801900BE0DA
:100620002178304601F010F800BF4021304601F03B
:1006300079F80028F9D0641C20780028F0D10B98B4
:10064000401C0B9020E0019820C801900A2202A9CA
:100650002846FFF77CFF02AC0BE02178304600F023
:10066000F3FF00BF4021304601F05CF80028F9D0CC
:10067000641C20780028F0D10B98401C0B9003E0FC
:100680000B98401C0B9000BF06E00B9810F8011B64
:100690000B90304600F0D8FF00BF4021304601F0FB
:1006A00041F80028F9D00B980078002887D106B0CF
:1006B00070BC5DF814FB00000008014000380140E8
:1006C00010B50446404800884FF6C77108403E49BF
:1006D0000880084600882043088001213A4800F03D
:1006E000BCFD10BD00B587B0012141F2050000F04E
:1006F00081FC2020ADF8180018208DF81B00032085
:100700008DF81A0006A9314800F0BEF94020ADF876
:10071000180006A92D4800F0B7F98020ADF81800A0
:1007200006A92A4800F0B0F90020ADF804004FF403
:100730008270ADF806000020ADF80800ADF80A00A0
:10074000ADF80C004FF40070ADF80E001820ADF8B5
:1007500010000020ADF812000720ADF8140001A928
:10076000194800F0D5FC0121174800F076FD38202B
:10077000FFF7A6FF07B000BD70B50546002405E0F1
:10078000601CC4B2C82C01DD002070BD02210E48DF
:1007900000F0E7FD0028F3D029460B4800F08EFD5D
:1007A000002405E0601CC4B2C82C01DD0020ECE789
:1007B0000121054800F0D5FD0028F3D0024800F0E3
:1007C0007FFDC0B2E1E700000030014000080140B9
:1007D00031490143314A1160704770B5002100234F
:1007E0000F22C4780CB32D4C246804F4E064C4F5E3
:1007F000E064210AC1F10403CA40447804FA03F119
:100800008478144021430901254C0678A1550478C9
:1008100004F01F050124AC4005786D114FF0E0266F
:1008200006EB8505C5F8004109E0047804F01F05D2
:100830000124AC401B4D0678761145F8264070BD6A
:10084000194A0A400243154B1B1F1A60704739B101
:10085000124A121D12680243104B1B1D1A6006E05B
:100860000E4A121D126882430C4B1B1D1A60704702
:10087000042808D14FF0E021096941F004014FF04C
:10088000E022116107E04FF0E021096921F0040145
:100890004FF0E022116170470000FA050CED00E016
:1008A00000E400E080E100E080FFFF1F00204449F9
:1008B0000860091D0860091D0860091D086041489D
:1008C0003F4914310860704700213D498279002A70
:1008D0003AD00A46126803689A430B461A600A1D0A
:1008E000126803689A430B1D1A60027911440A6862
:1008F00003681A430A60324A0832126803689A434E
:100900002F4B08331A601A1D126803689A432C4B48
:100910000C331A604279102A0ED11A1F126803682C
:100920001A43274B08331A601A1D126803681A43CA
:10093000234B0C331A600DE02149427911440A68B7
:1009400003681A430A6005E0027911440A680368E3
:100950009A430A6070470021016001710C214171C6
:100960000021817170471649103109680143144A0A
:1009700010321160704701460020114A143212688B
:100980000A4201D0012000E0002070470C491431D8
:1009900008607047014600200022094B1B6803EAEB
:1009A0000102074B14331B680B4202D00AB101202D
:1009B00000E00020704702491431086070470000D1
:1009C00000040140FFFF0F0010B50446CA488442EE
:1009D00008D10121042000F027FB0021042000F0B1
:1009E00023FB46E0C548844208D10121082000F0DD
:1009F0001BFB0021082000F017FB3AE0C0488442AE
:100A000008D10121102000F00FFB0021102000F080
:100A10000BFB2EE0BB48844208D10121202000F0CE
:100A200003FB0021202000F0FFFA22E0B6488442B8
:100A300008D10121402000F0F7FA0021402000F009
:100A4000F3FA16E0B148844208D10121802000F079
:100A5000EBFA0021802000F0E7FA0AE0AC4884427B
:100A600007D10121801500F0DFFA0021A01500F068
:100A7000DBFA10BD10B50121084600F0D5FA0021BF
:100A8000012000F0D1FA10BD2DE9F0410246002509
:100A90000026002000230024002791F803C00CF05A
:100AA0000F0591F803C01CF0100F03D091F802C09D
:100AB0004CEA050591F800C0BCF1000F31D0146874
:100AC00000202BE04FF0010C0CFA00F3B1F800C04D
:100AD0000CEA03069E4220D183004FF00F0C0CFA63
:100AE00003F7BC4305FA03FC4CEA040491F803C085
:100AF000BCF1280F06D14FF0010C0CFA00FCC2F833
:100B000014C00AE091F803C0BCF1480F05D14FF0C2
:100B1000010C0CFA00FCC2F810C0401C0828D1D30C
:100B20001460B1F800C0BCF1FF0F34DD5468002040
:100B30002EE000F1080C4FF0010808FA0CF3B1F8B0
:100B400000C00CEA03069E4221D183004FF00F0C37
:100B50000CFA03F7BC4305FA03FC4CEA040491F8D1
:100B600003C0BCF1280F05D100F1080C08FA0CF8FD
:100B7000C2F8148091F803C0BCF1480F07D100F10E
:100B8000080C4FF0010808FA0CF8C2F81080401C5D
:100B90000828CED35460BDE8F0814FF6FF71018084
:100BA000022181700421C1707047024600209368C1
:100BB0000B4201D0012000E0002070470146886808
:100BC00080B2704702460020D3680B4201D001205A
:100BD00000E0002070470146C86880B2704701619C
:100BE0007047416170470AB1016100E0416170479F
:100BF000C16070474FF480320A4382618161826133
:100C000082698269704702460020424B18684FF69D
:100C10008073184040EA021008433E4B186070474A
:100C20003D49C8617047F0B50A4600230024002101
:100C3000002500F00046B6F1004F02D1354EF169B3
:100C400001E0344E7168C0F3034583B200F44016EE
:100C5000B6F5401F08D121F070612E4E766826F05F
:100C600070662C4F7E6012E000F48016B6F5801F8F
:100C700006D1032606FA05F4A14341F0706106E0AF
:100C8000460D360103FA06F6B14341F0706122B118
:100C9000460D360103FA06F6314300F00046B6F180
:100CA000004F02D11B4EF16101E01A4E7160F0BDA0
:100CB00030B500228B071C0F0F2303FA04F2154BEB
:100CC00008338C1053F824309343124C08348D10A1
:100CD00044F8253023468C1053F824308C07240F19
:100CE00000FA04F423430B4C08348D1044F82530EB
:100CF00030BD0A490860704700080140000C0140FF
:100D0000001001400014014000180140001C014087
:100D1000002001400000014000002042DC00204291
:100D2000DD48006840F00100DB4908600846406883
:100D3000DA490840D849486008460068D849084060
:100D4000D54908600846006820F4802008600846FD
:100D5000406820F4FE0048604FF41F008860704730
:100D6000CD49096821F48031CB4A116011460968E8
:100D700021F480211160B0F5803F03D0B0F5802FC1
:100D80000ED106E0C449096841F48031C24A1160BD
:100D900007E0C149096841F4A021BF4A116000E0A1
:100DA00000BF00BF704710B501460022002300209D
:100DB0004A11012A02D1B84C236806E0022A02D166
:100DC000B54C236A01E0B44C636A01F01F020124B0
:100DD00094401C4201D0012000E0002010BD38B535
:100DE000002000900024002500BF3120FFF7DBFF2A
:100DF00005460098401C00900098B0F5A06F01D007
:100E0000002DF2D03120FFF7CEFF08B1012400E021
:100E10000024204638BD014600209F4A106820F07B
:100E2000F80040EAC100106070479E4908607047B2
:100E300002460020984B586820F47C1042EA0103D7
:100E40001843954B586070479649086670470146AD
:100E50000020914A506820F003000843506070471A
:100E60008D48406800F00C007047014600208A4A17
:100E7000506820F0F00008435060704701460020A1
:100E8000854A506820F4E06008435060704701468E
:100E90000020814A506820F4605040EAC100506050
:100EA000704729B17C4A527A02437B4B5A7204E064
:100EB000794A527A8243784B5A7270477A4908606D
:100EC000704701460020744A506820F440400843AF
:100ED000506070470021754A11706F4A82F82010E7
:100EE000012802D0042808D103E001216F4A1170C3
:100EF00004E005216D4A117000E000BF00BF70479B
:100F00006B49086070476449096A0143624A11628B
:100F10007047674944390860704730B500210022A6
:100F2000002400235C4D6D6805F00C0121B10429FB
:100F300005D0082923D105E05E4D056022E05D4D16
:100F400005601FE0544D6D6805F47012524D6D68D8
:100F500005F48034022505EB92421CB9564D5543E9
:100F600005600BE04C4D6D6815F4003F03D0524D09
:100F70005543056002E04F4D5543056002E04D4D7D
:100F8000056000BF00BF444D6D6805F0F001090920
:100F90004A4D6B5C0568DD4045603F4D6D6805F46A
:100FA000E061090A454D6B5C4568DD4085603A4D5E
:100FB0006D6805F46051C90A404D6B5C4568DD40C1
:100FC000C560354D6D6805F44041890B3C4D6B5C47
:100FD000C568B5FBF3F5056130BD29B12E4A5269EC
:100FE00002432D4B5A6104E02B4A526982432A4B3B
:100FF0005A61704729B1284A92690243264B9A6187
:1010000004E0254A92698243234B9A61704729B1D3
:10101000214AD2690243204BDA6104E01E4AD269B8
:1010200082431D4BDA61704729B11B4AD2680243E3
:10103000194BDA6004E0184AD2688243164BDA6032
:10104000704729B1144A12690243134B1A6104E034
:10105000114A12698243104B1A6170471449403992
:10106000086070470F49C86470470B49C8717047E2
:101070000948406A40F0807007494862704701465D
:101080000020054A92680A4201D0012000E00020B9
:101090007047014988727047001002400000FFF855
:1010A000FFFFF6FE00004242D800424220100240FC
:1010B0008004424200127A0000093D00180000201E
:1010C0002800002010B50446BE48844208D1012102
:1010D0008014FFF7A9FF0021A014FFF7A5FF16E079
:1010E000B948844208D101210014FFF7AAFF00216A
:1010F0002014FFF7A6FF0AE0B448844207D101217B
:10110000C013FFF79EFF0021E013FFF79AFF10BD09
:1011100010B50022028802F441520B884C88234308
:101120008C882343CC8823430C8923434C89234355
:101130008C892343CC8923431A430280838B4FF24B
:10114000FF74234083830B8A038210BD2DE9F04F87
:1011500085B005460C464FF0000902274FF0000805
:101160004FF0010B0026B246A88B4FF24001084019
:10117000A88302202884B5F81C90A068022801D119
:1011800000BF38E0A08810B94FF0010B01E04FF02C
:10119000020B8D48854200D100E000BF6846FFF792
:1011A000BCFEDDF800A0E088B0F5007F0AD14FEA70
:1011B0001A2000EB80004000A168B0FBF1F0401D58
:1011C00086B20BE04FEA4B10BAFBF0F000EB800068
:1011D0004000A168B0FBF1F0401D86B20A20B6FBCA
:1011E000F0F606F00108A6EB0800C0F34F074FF633
:1011F000FF7000EA0828022F01DBFF2F02DD022723
:101200004FF00008E08840EA080038432884A088AE
:10121000A1890843618808432188084340F400609D
:1012200040EA0909A5F81C9005B0BDE8F08F00213F
:10123000018041808180C180018141818181C181A2
:101240000721018270470021018041808180C18097
:101250000221816000218181704721B1028842F022
:101260004002028004E002884FF6BF731A400280F9
:10127000704721B1828B42F48062828304E0828BCA
:101280004FF6FF331A408283704730B500240023A5
:101290000C110125A540ABB21AB185881D4385808C
:1012A00002E085889D43858030BD1AB183880B4359
:1012B000838002E083888B438380704781817047FD
:1012C000014688897047A1F57E42FF3A04D0028822
:1012D00042F48072028004E002884FF6FF631A40F5
:1012E0000280704721B1828842F00402828004E0CB
:1012F00082884FF6FB731A408280704702884FF253
:10130000FF731A40028002880A43028070470188F6
:1013100041F480510180704721B1028842F40052AB
:10132000028004E002884DF6FF731A400280704785
:1013300002460020012901D0108B00E0908A7047FE
:101340000146088A7047B1F5804F04D1028842F403
:101350008042028004E002884BF6FF731A4002804C
:1013600070470246002013890B4201D0012000E0A3
:1013700000207047CA4302817047F0B50246002042
:1013800000240023002501F00F070126BE40B4B25F
:101390000B1101269E40B3B2968806EA0305168912
:1013A000264202D00DB1012000E00020F0BD10B5B2
:1013B000002201F00F040123A3409AB2D34303811A
:1013C00010BD00000030014000380040003C0040EB
:1013D00010B50446FB48844209D101218803FFF778
:1013E00023FE00214FF48040FFF71EFE32E0F64856
:1013F000844209D101214804FFF723FE00214FF464
:101400000030FFF71EFE25E0F048844209D101219B
:101410008804FFF716FE00214FF48020FFF711FE2D
:1014200018E0EB48844209D10121C804FFF709FE06
:1014300000214FF40020FFF704FE0BE0E548844252
:1014400008D101210805FFF7FCFD00214FF48010B1
:10145000FFF7F7FD10BD2DE9F04786B005460E46B3
:101460000024A24600BFA1460027B08900B100BFFA
:101470002F462C8A4CF6FF700440F08804432C82DF
:10148000AC894EF6F3100440B08831890843718965
:1014900008430443AC81AC8A4FF6FF400440B08956
:1014A0000443AC8201A8FFF738FDC648874202D149
:1014B000DDF810A001E0DDF80CA0A88910F4004FC1
:1014C00008D00AEBCA0000EB0A1031684900B0FBF3
:1014D000F1F807E00AEBCA0000EB0A103168890056
:1014E000B0FBF1F86420B8FBF0F00401200964219E
:1014F00001FB1089A88910F4004F08D0322000EBBE
:10150000C900B0FBF1F000F00700044308E032200E
:1015100000EB09106421B0FBF1F000F00F00044370
:101520002C8106B0BDE8F0874FF416510160002110
:101530008180C18001810C2141810021818170471E
:1015400010B502460020108A4FF2FF0318400B88A6
:101550004C8823438C882343CC8823431843108230
:1015600010BD0021018041808180C180704721B180
:10157000828942F40052828104E082894DF6FF7331
:101580001A4082817047F0B50346002400260025EA
:101590000020A1F510676A3F00D100BF1846C1F3D3
:1015A000421401F01F06012707FA06F5012C01D1AC
:1015B0000C3004E0022C01D1103000E014301AB1DC
:1015C00007682F43076002E00768AF430760F0BD7C
:1015D0001AB1838A0B43838202E0838A8B4383821E
:1015E0007047028A4FF6F0731A400282028A0A4359
:1015F0000282704782894FF2FF731A40828182898A
:101600000A438281704721B1828942F002028281BD
:1016100004E082894FF6FD731A4082817047028A86
:101620004FF6DF731A400282028A0A430282704731
:1016300021B1028A42F48042028204E0028A4BF61F
:10164000FF731A4002827047C1F30802828070471C
:1016500001468888C0F308007047818941F0010184
:1016600081817047028BD2B20283028B42EA01224F
:1016700002837047028B02F47F420283028B0A438B
:101680000283704721B1828A42F02002828204E004
:10169000828A4FF6DF731A408282704721B1828AB4
:1016A00042F01002828204E0828A4FF6EF731A4001
:1016B0008282704721B1828A42F00802828204E06D
:1016C000828A4FF6F7731A408282704721B182896D
:1016D00042F40042828103E08289C2F30E028281D9
:1016E000704721B1828A42F40062828204E0828AD9
:1016F0004FF2FF731A4082827047828A4FF6FB7363
:101700001A408282828A0A438282704721B1828A89
:1017100042F00202828204E0828A4FF6FD731A4090
:101720008282704702460020B1F5007F00D100BFE1
:1017300013880B4201D0012000E00020704701F423
:101740000072B2F5007F00D100BFCA43028070472B
:1017500070B502460024002300250020A1F5106684
:101760006A3E00D100BFC1F3421501F01F030126FC
:1017700006FA03F3012D02D19689334006E0022DCB
:1017800002D1168A334001E0968A33400C120126BA
:1017900006FA04F41688344013B10CB1012000E0BD
:1017A000002070BD10B500220023A1F510646A3C32
:1017B00000D100BF0A1201249440A3B2DC4304808C
:1017C00010BD0000003801400044004000480040C7
:1017D000004C004000500040064880470648004743
:1017E000FEE7FEE7FEE7FEE7FEE7FEE7FEE7FEE7D1
:1017F000FEE7FEE70D0300083101000810B50421E3
:10180000FE48FFF7ECF910BD10B50421FB48FFF7C7
:10181000E8F910BD0CE0042107E0712201E0531E3D
:10182000DAB2002AFBDC4B1ED9B20029F5DC401EDF
:101830000028F0D1704710B50421F048FFF7D1F926
:1018400040F6FF70FFF7E6FF0421EC48FFF7C7F909
:1018500040F6FF70FFF7DEFF10BD10B50446012C07
:1018600004D0022C05D0032C09D105E0FFF7E3FFDB
:1018700006E0FFF7C9FF03E0FFF7C0FF00E000BF8D
:1018800000BF10BD10B5044600BF0221DC48FFF7C1
:1018900068FD0028F9D02146D948FFF70FFD00BFA9
:1018A0000121D748FFF75DFD0028F9D0D448FFF7A4
:1018B00007FDC0B210BD70B504460121D148FFF745
:1018C00090F90221D048FFF78CF90520FFF7DAFFE5
:1018D0002046FFF7D7FF0020FFF7D4FF0546012180
:1018E000C848FFF77CF9284670BD10B5C520FFF742
:1018F000E2FF10BD30B500210022002300BF0BE045
:10190000002206E0C82300BF1C00A3F10103FBD1A5
:10191000521C8242F6D3491C0529F1D330BD10B5C3
:101920000121B948FFF75BF96420FFF7E3FF0121CC
:10193000B548FFF756F96420FFF7DCFF0121B248F4
:10194000FFF74DF96420FFF7D5FF0121AD48FFF700
:1019500048F96420FFF7CEFF0121AA48FFF73FF9BD
:101960006420FFF7C7FF10BD70B505460C46012186
:10197000A448FFF736F90221A348FFF732F9042003
:10198000FFF780FF2846FFF77DFF2046FFF77AFF2D
:1019900001219C48FFF723F970BD70B50025002494
:1019A0000BE0B220FFF787FF212801D1012506E0D7
:1019B0000A20FFF79FFF601CC4B20A2CF1DB00BFB6
:1019C000284670BD10B543213520FFF7CDFF092112
:1019D0001C20FFF7C9FF2021BD20FFF7C5FF012113
:1019E0000820FFF7C1FF0520FFF784FF0021082032
:1019F000FFF7BAFF0520FFF77DFFFFF7CEFF08B91D
:101A0000002010BDFF21B220FFF7AEFF06213720D6
:101A1000FFF7AAFF06213720FFF7A6FF0520FFF7F3
:101A200069FF0B211C20FFF79FFF10212920FFF7E2
:101A30009BFF0021BD20FFF797FF0120E1E770B574
:101A400090B03C22714901A800F044FB70A00068EE
:101A500000900126002441E0FFF79FFF08B900260F
:101A60003EE01DF80410C120FFF77EFF0021C320D7
:101A7000FFF77AFF04210820FFF776FF0120FFF728
:101A800039FF00210820FFF76FFF0120FFF732FF29
:101A9000002512E004EB840001A901EB8000405D09
:101AA00000B90CE004EB840001AA02EB8000415D68
:101AB0000520FFF759FF681CC5B2142DEADB00BFF3
:101AC0002946B920FFF750FFFF21B220FFF74CFF56
:101AD00004213720FFF748FF601CC4B2032CBBDB96
:101AE00000BF304610B070BD10B50620FFF7E3FE12
:101AF00035211720FFF738FF0520FFF7FBFE0620F2
:101B0000FFF7D9FE03218920FFF72EFF0520FFF7FD
:101B1000F1FE4321CF20FFF727FF0520FFF7EAFE64
:101B20000221CB20FFF720FF0A211120FFF71CFF25
:101B300038480078402810D100211E20FFF714FFFC
:101B40000F211920FFF710FF18211B20FFF70CFFB2
:101B50002C211D20FFF708FF0FE000211E20FFF7BA
:101B600003FF3F211920FFF7FFFE48211B20FFF74D
:101B7000FBFE1F211D20FFF7F7FE0520FFF7BAFE31
:101B80000421CD20FFF7F0FE4C211720FFF7ECFEDB
:101B90000120FFF7AFFE0021B920FFF7E5FE4F213E
:101BA000CF20FFF7E1FEFF216F20FFF7DDFE10BD24
:101BB00010B5082017490870FFF796FF0021BD20D7
:101BC000FFF7D2FE48211720FFF7CEFE0520FFF7D2
:101BD00091FE80213C20FFF7C7FE07213E20FFF742
:101BE000C3FEFF213820FFF7BFFE07213A20FFF791
:101BF000BBFE00214020FFF7B7FE0DE000180140BA
:101C00000038004000080140000C0140DC220008C0
:101C1000010203002D00002008214220FFF7A4FE4E
:101C200000214420FFF7A0FE08214620FFF79CFE7C
:101C30000120FFF75FFE10BD10B5FFF7B9FF10BD23
:101C400070B50024002500BF1DE0FFF7F5FF6420FC
:101C5000FFF750FEFFF7F3FE28B9FFF760FE3220D2
:101C6000FFF748FE0DE00A20FFF744FEFFF7AAFE4B
:101C700028B9FFF754FE3220FFF73CFE01E00125B2
:101C800003E0601CC4B2052CDFDB00BF284670BD3A
:101C900008B50121C020FFF7ADF90420ADF8000020
:101CA00003208DF8020010208DF803006946D94802
:101CB000FEF7EAFE8020ADF800006946D648FEF740
:101CC000E3FE4FF48070ADF800006946D248FEF79D
:101CD000DBFE4FF40070ADF800006946CE48FEF719
:101CE000D3FE0421CB48FEF77AFF8021CA48FEF7D5
:101CF00078FF4FF48071C848FEF773FF4FF400710E
:101D0000C548FEF76EFF08BD00B587B00121880306
:101D1000FFF77DF901210820FFF76CF94FF48040AF
:101D2000ADF8040003208DF8060018208DF8070098
:101D300001A9BA48FEF7A8FE4FF40040ADF8040030
:101D400001A9B648FEF7A0FE4FF40050ADF804001C
:101D500001A9B248FEF798FE0220ADF80400032066
:101D60008DF8060010208DF8070001A9AB48FEF79A
:101D70008BFE0121AA48FEF732FF0021A948FFF798
:101D80006CFA0020ADF808004FF48270ADF80A003C
:101D90000020ADF80C000220ADF80E000020ADF8D8
:101DA00010004FF40070ADF812002820ADF81400B8
:101DB0000020ADF816000720ADF8180002A99948D8
:101DC000FFF7A6F901219748FFF747FA07B000BDD2
:101DD0001FB501210846FFF70DF901210820FFF783
:101DE00009F94FF48050ADF8000004208DF803008D
:101DF00003208DF8020069468848FEF745FE0C2155
:101E00000120FEF755FF4FF48050029000208DF81E
:101E10000C000C208DF80D0001208DF80E0002A89A
:101E2000FEF752FD28208DF8040001208DF80500F2
:101E30008DF806008DF8070001A8FEF7CEFC1FBD47
:101E400008B501210C20FFF7D5F80120ADF80000FE
:101E500003208DF8020010208DF8030069467048B9
:101E6000FEF712FE0120ADF8000069466B48FEF750
:101E70000BFE08BD10B5FFF7E3FFFFF7A9FFFFF763
:101E800043FFFFF705FFFFF74AFD10BD0024FFF7F2
:101E9000F1FF65A000F058F966A000F055F968A0C0
:101EA00000F052F96AA000F04FF96CA000F04CF974
:101EB00000206D49087042E06B480078102815D06A
:101EC00003DC48B1012831D104E011282FD031289A
:101ED0002CD100E000BF2EE0012063490870FFF71D
:101EE000AFFE10B931206049087024E0FFF7FDFC17
:101EF000044621465DA000F027F9012C04D0022CF5
:101F000006D0032C0CD107E05BA000F01DF908E01F
:101F10005FA000F019F904E063A000F015F900E0FB
:101F200000BF00BF00205049087004E000BF00203F
:101F30004D49087000BF00BF2046FFF78EFCBBE78D
:101F400010B500242B20FFF7B6FC5D490870002176
:101F50002920FFF709FD00210220FFF705FD584861
:101F6000007810F0100F19D0B220FFF7A4FC212840
:101F700014D1BF20FFF79FFC35280FD1BA20FFF7FF
:101F80009AFC0446002C05DD042C03DC10203649A5
:101F9000087006E011203449087002E0112032492F
:101FA000087000212B20FFF7DFFC00211C20FFF729
:101FB000DBFC00212920FFF7D7FC00210220FFF7DE
:101FC000D3FC00212B20FFF7CFFC0021BA20FFF724
:101FD000CBFC0021BC20FFF7C7FC01210820FFF744
:101FE000C3FC00210820FFF7BFFC10BD10B54FF463
:101FF0008050FEF7CFFC60B1FFF7A2FF31A000F0E8
:10200000A3F84FF48050FEF7C1FC4FF48050FEF768
:10201000D2FC10BD00180140001C0140000C014022
:10202000000801400038004031A1A2C1F7CBAEB595
:10203000C60D0A0032A1A2C9C1CBB80D0A0000002A
:1020400033A1A2B0B4BCFCB4A5B7A20D0A00000035
:1020500034A1A2C8ABC3F00D0A00000035A1A2D77D
:10206000B4CCAC0D0A0000002C0000200D0ACAB64A
:10207000B1F0C2EB3A25640020C9C1CBB820D6B874
:10208000C1EECAB6B1F0B3C9B9A60D0A000000008E
:1020900020BFAAB5C620D6B8C1EECAB6B1F0B3C942
:1020A000B9A60D0A0000000020B9D8B5C620D6B8E0
:1020B000C1EECAB6B1F0B3C9B9A60D0A000000005E
:1020C0002E000020BDF8C8EBD6D0B6CF31320D0AB5
:1020D0000000000040EA01039B0703D009E008C9A3
:1020E000121F08C0042AFAD203E011F8013B00F8DD
:1020F000013B521EF9D2704730B50B460146002015
:102100002022012409E021FA02F59D4205D303FAB9
:1021100002F5491B04FA02F52844151EA2F101023A
:10212000F1DC30BD064C074D06E0E06840F00103ED
:1021300094E8070098471034AC42F6D3FDF7FCFF53
:1021400018230008382300080FB4054B10B503A965
:10215000044A029800F018F810BC5DF814FB000067
:10216000310500083000002002E008C8121F08C135
:10217000002AFAD170477047002001E001C1121F08
:10218000002AFBD1704700002DE9FF4F89B09B4624
:102190000446002597E0252833D10027641C4E49CA
:1021A000B84601222378203B02FA03F0084202D00D
:1021B0000743641CF6E720782E2819D114F8010F84
:1021C00047F004072A280ED06FF02F022078A0F1E4
:1021D000300109290CD808EB880102EB410100EB22
:1021E0000108641CF2E70A98641C50F8048B0A90FA
:1021F000207800286BD0642808D0692806D075287C
:1022000020D05A460B9990476D1C5BE00A994FF01D
:102210000A0901C90A91002804DAC0F100004FF050
:102220002D0102E0390504D52B218DF82010012164
:1022300003E0F90704D02021F7E78A4608AE0EE054
:102240000021FAE70A994FF00A0901C90A91F7E754
:102250004946FFF751FF01F1300106F8011D002842
:10226000F6D1ADEB060000F12009780701D44FF05C
:102270000108C84502DDA8EB090000E00020804607
:10228000002706E008A85A46C05D0B9990476D1CD0
:102290007F1C5745F6DB04E030205A460B999047E7
:1022A0006D1CB8F10001A8F10108F5DC05E016F895
:1022B000010B5A460B9990476D1CB9F10001A9F129
:1022C0000109F4DC641C207800287FF464AF0DB0B1
:1022D0002846BDE8F08F0000092801007368616E90
:1022E000207368756F00000000000000000000000F
:1022F0006B61692064656E670000000000000000EB
:10230000000000006775616E2064656E6700000064
:10231000000000000000000038230008000000203A
:1023200034000000682100086C23000834000020FD
:10233000040400007821000800A24A040000000004
:102340000000000001020304060708090000000065
:10235000000000000102030401020304060708094B
:0C2360000204060800000000000000005D
:0400000508000131BD
:00000001FF
